:020000020000FC
:100000000C9430000C942A000C942A000C942A00C2
:100010000C942A000C942A000C942A000C942A00B8
:100020000C942A000C942A000C942A000C942A00A8
:100030000C942A000C942A000C942A000C942A0098
:100040000C942A000C942A000C942A000C942A0088
:060050000C942A00189533
:1000600000243FE53DBF34E03EBF30E834BF34BF3D
:100070003FEF3ABB37BB34BB31BB0BBA08BA05BA4A
:1000800002BA13C0242E32B3337F306132BB0895DD
:10009000F0E0EAEB0895FCDFE00FF01D0895149105
:1000A00015BB0895F8DFFBDF08954FEF949A0FE03A
:1000B000E9DFF8DF939A929AF8CFC0F9A4B0999249
:0A00C00082F880908883C6A1868E26
:00000001FF
