:020000020000FC
:100000000C9430000C942A000C942A000C942A00C2
:100010000C942A000C942A000C942A000C942A00B8
:100020000C942A000C942A000C942A000C942A00A8
:100030000C942A000C942A000C942A000C942A0098
:100040000C942A000C942A000C942A000C942A0088
:060050000C942A00189533
:1000600000245FE55DBF54E05EBF50E854BF54BF5D
:1000700008C003950A3031F4089503950F3019F440
:0C008000089500E0F6DFF9DF00C0FBCFC0
:00000001FF
