:020000020000FC
:100000000C9430000C9450000C9450000C94500050
:100010000C9450000C9450000C9450000C94500020
:100020000C9450000C9457000C9450000C94500009
:100030000C9450000C9450000C9450000C94500000
:100040000C9450000C9450000C9450000C945000F0
:040050000C945000BC
:10006000A1E0B0E011243FE53DBF34E03EBF30E801
:1000700034BF34BF3F9332E033BF3F913F933CE006
:100080003CBF3F9131E039BF12BE3FEF3ABB37BBB7
:100090003BBB38BB34BB31BB15BA12BA789413C022
:1000A0001895DA9B02C0DA980895DA9A0895F9DF74
:1000B0001895742F54E165EF6A95F1F75A95D9F7C1
:0800C0007A95C1F70895FFCF06
:00000001FF
