:020000020000FC
:100000000C9430000C942A000C942A000C942A00C2
:100010000C942A000C942A000C942A000C942A00B8
:100020000C942A000C942A000C942A000C942A00A8
:100030000C942A000C942A000C942A000C942A0098
:100040000C942A000C942A000C942A000C942A0088
:060050000C942A00189533
:1000600000245FE55DBF54E05EBF50E854BF54BF5D
:100070002FC01127222716E0153011F426E002C008
:1000800027E000C01127222708950AE0083209F46A
:100090000EC00A3011F404E107C0043111F40EE17E
:1000A00003C00E3109F408E20832F0CF00C0089511
:1000B00040E043954A30E9F700C04427089540E006
:1000C00043954A30E9F743954431E9F700C0089574
:0A00D000D0DFDBDFEDDFF3DFFBCF55
:00000001FF
