:020000020000FC
:100000000C9430000C942A000C942A000C942A00C2
:100010000C942A000C942A000C942A000C942A00B8
:100020000C942A000C9440000C942A000C942A0092
:100030000C942A000C942A000C942A000C942A0098
:100040000C942A000C942A000C942A000C942A0088
:060050000C942A00189533
:100060000FC000245FE55DBF54E05EBF50E854BFA1
:1000700054BF0CC0DA9B02C0DA980895DA9A08954A
:0E0080005FEF5BBB00C0F6DFFECF1895FFCF31
:00000001FF
