:020000020000FC
:100000000C9430000C944A000C944A000C944A0062
:100010000C944A000C944A000C944A000C944A0038
:100020000C944A000C9451000C944A000C944A0021
:100030000C944A000C944A000C944A000C944A0018
:100040000C944A000C944A000C944A000C944A0008
:040050000C944A00C2
:10006000A1E0B0E011243FE53DBF34E03EBF30E801
:1000700034BF34BF31E033BF31E039BF12BE3FEF90
:100080003ABB37BB3BBB38BB34BB31BB15BA12BA2A
:10009000789413C01895DA9B02C0DA980895DA9A1A
:1000A0000895F9DF1895742F54E165EF6A95F1F71B
:0C00B0005A95D9F77A95C1F70895FFCF53
:00000001FF
