:020000020000FC
:100000000C9430000C942A000C942A000C942A00C2
:100010000C942A000C942A000C942A000C942A00B8
:100020000C942A000C942A000C942A000C942A00A8
:100030000C942A000C942A000C942A000C942A0098
:100040000C942A000C942A000C942A000C942A0088
:060050000C942A00189533
:1000600000245FE55DBF54E05EBF50E854BF54BF5D
:100070000FC0B0E0A2EA0895D0E0C0E60895F0E035
:10008000EAE9089505910993EA17FB07D9F708955E
:10009000F0DFF2DFF4DFF6DFFBCF06070101050238
:0200A000040753
:00000001FF
