:020000020000FC
:100000000C9430000C942A000C942A000C942A00C2
:100010000C942A000C942A000C942A000C942A00B8
:100020000C942A000C942A000C942A000C942A00A8
:100030000C942A000C942A000C942A000C942A0098
:100040000C942A000C942A000C942A000C942A0088
:060050000C942A00189533
:1000600000245FE55DBF54E05EBF50E854BF54BF5D
:1000700013C0242E54E165EF6A95F1F75A95D9F72C
:100080002A94C1F708950FEF0ABB08950FE1089570
:10009000079508950BBB0895F6DFF8DFF9DFFADF67
:0800A00044E6E7DFFBCFF8CFD7
:00000001FF
