:020000020000FC
:100000000C9430000C9445000C9445000C94450071
:100010000C9445000C9445000C9445000C9445004C
:100020000C9445000C9445000C9445000C9445003C
:100030000C9445000C9445000C9445000C9445002C
:100040000C9445000C9445000C9445000C9445001C
:040050000C944500C7
:10006000A1E0B0E011241FE51DBF14E01EBF10E8A1
:1000700014BF14BF1FEF1ABB17BB1BBB18BB14BBAD
:1000800011BB15BA12BA00276EC1189512B3137FAF
:10009000106112BB08951FE014BB000000000000B7
:1000A00083B3982B10EF14BB000000000000000089
:1000B000000083B3982B91271FEF14BB0895742F72
:1000C00054E165EF6A95F1F75A95D9F77A95C1F73A
:1000D0000895C0E6D0E00895EAEEF1E00895AAEFB1
:1000E000B1E00895188219821A821B82089511279F
:1000F00033E028EE4217830740F01395421B830B31
:1001000042178307D0F71883112730E024E64217FF
:10011000830740F01395421B830B42178307D0F7E8
:100120001983112730E02AE04217830740F0139526
:10013000421B830B42178307D0F71A83112730E045
:1001400021E04217830730F01395421B830B4217BF
:100150008307D0F71B8308954CE142BB22273B81E4
:10016000E30FF11D249125BB41E0A9DF089548E18B
:1001700042BB22273A81E30FF11D249125BB41E0C8
:100180009EDF089544E142BB22273981E30FF11D30
:10019000249125BB41E093DF089540E142BB222733
:1001A0003881E30FF11D249125BB41E088DF0895DC
:1001B000002791E01196B11D8B2F4A2F8ADF92DF25
:1001C00096DF8ADF0395C8DF87DFD1DF85DFDADFDF
:1001D00083DFE3DF81DF0E31A9F743E087EEA81765
:1001E000B40711F4A0E0B0E00895C0F9A4B099926A
:1001F00082F880908883C6A1868E002791E0A15066
:10020000B1098B2F4A2F65DF6DDF71DF65DF039545
:10021000A3DF62DFACDF60DFB5DF5EDFBEDF5CDFA8
:100220000E31A9F740E080E0A817B40711F4A7EE5B
:10023000B3E008957030A9F111273FE02FEF421786
:10024000830740F01395421B830B42178307D0F7B7
:100250001883112730E02FEF4217830740F01395E2
:10026000421B830B42178307D0F71983112730E015
:1002700020E14217830740F01395421B830B42177E
:100280008307D0F71A83112730E021E04217830754
:1002900030F01395421B830B42178307D0F71B8363
:1002A0000895112733E028EE4217830740F0139595
:1002B000421B830B42178307D0F71883112730E0C6
:1002C00024E64217830740F01395421B830B421725
:1002D0008307D0F71983112730E02AE042178307FC
:1002E00040F01395421B830B42178307D0F71A8304
:1002F000112730E021E04217830730F01395421BAD
:10030000830B42178307D0F71B83089525DFE4DEB4
:100310002EDFE2DE37DFE0DE40DFDEDE089501E0E3
:1003200000950BBB45DF01E01EC002E000950BBB52
:1003300064DF02E018C004E00095E8DF0BBB04E0D6
:1003400012C005E0009512B31F7E12BB0BBB05E087
:100350000AC006E0009512B3137F106112BBD6DF0E
:100360000BBB06E000C048EC992795DE909511E1A3
:100370001923A9F212E11923C1F214E11923D9F2C8
:1003800011E21923F1F212E2192319F3013039F2C3
:10039000023059F2043079F2053099F20630C9F290
:0203A000E3CFA9
:00000001FF
