:020000020000FC
:100000000C9430000C942A000C942A000C942A00C2
:100010000C942A000C942A000C942A000C942A00B8
:100020000C942A000C942A000C942A000C942A00A8
:100030000C942A000C942A000C942A000C942A0098
:100040000C942A000C942A000C942A000C942A0088
:060050000C942A00189533
:1000600000245FE55DBF54E05EBF50E854BF54BF5D
:1000700036C0B0E0AAEF0895D0E0C0E60895F0E001
:10008000EEEE089505913395EA17FB07D9F7F7DFF0
:1000900024D00895059109932395EA17FB072317A8
:1000A000C9F71BD0E9DF089508811981011710F005
:1000B00018830983219623952317B1F706D0089555
:1000C0003A950895303081F70895FADF06D0D4DFED
:1000D000F9DF089533272227089522270895CCDFDA
:1000E000CEDFC7DFCFDFD6DFDFDFF4DFF8CF0102FF
:0A00F0000609020C060103050902CF
:00000001FF
