:020000020000FC
:100000000C9430000C942A000C942A000C942A00C2
:100010000C942A000C942A000C942A000C942A00B8
:100020000C942A000C942A000C942A000C942A00A8
:100030000C942A000C942A000C942A000C942A0098
:100040000C942A000C942A000C942A000C942A0088
:060050000C942A00189533
:1000600000245FE55DBF54E05EBF50E854BF54BF5D
:1000700035C0ECEEF0E0C0E6D0E0AAEFB0E00895C5
:10008000C0E6D0E00895088209820A820B820C82C1
:100090000D820E820F82088609860A860B860C86E0
:1000A0000D86089505910993F394EA17FB07D1F79C
:1000B000FA94089508811981011710F018830983B3
:1000C00021960895F7DFE394FE14E1F70895D8DF51
:1000D000F9DFFA94EE24EF14D1F70895CADFD3DFE5
:1000E000CFDFFF24DFDFCCDFF2DFF8CF0E0D0C0B0C
:0A00F0000A090807060504030201CF
:00000001FF
