:020000020000FC
:100000000C9430000C942A000C942A000C942A00C2
:100010000C942A000C942A000C942A000C942A00B8
:100020000C942A000C942A000C942A000C942A00A8
:100030000C942A000C942A000C942A000C942A0098
:100040000C942A000C942A000C942A000C942A0088
:060050000C942A00189533
:1000600000245FE55DBF54E05EBF50E854BF54BF5D
:1000700018C0002704D013951A30D9F7089500004E
:1000800003950A30E1F708952227332729E00895E0
:10009000253011F436E0089537E00895F5DFF8DFF4
:0600A0000895FCDFFECF15
:00000001FF
