:020000020000FC
:100000000C9430000C942A000C942A000C942A00C2
:100010000C942A000C942A000C942A000C942A00B8
:100020000C942A000C942A000C942A000C942A00A8
:100030000C942A000C942A000C942A000C942A0098
:100040000C942A000C942A000C942A000C942A0088
:060050000C942A00189533
:1000600000248FE58DBF84E08EBF80E884BF84BF0D
:1000700018C0242E54E165EF6A95F1F75A95D9F727
:100080002A94C1F70895E8EBF0E0089505910895EA
:100090000FEF0ABB08950FE10895079508950BBB74
:1000A00008951127F0DFF4DFF1DFF9DF44E6E1DF47
:1000B00013951E30C9F7F5CF7E3C180081C3E7FFCA
:0600C000FFE7C381000010
:00000001FF
