:020000020000FC
:100000000C9430000C942A000C942A000C942A00C2
:100010000C942A000C942A000C942A000C942A00B8
:100020000C942A000C942A000C942A000C942A00A8
:100030000C942A000C942A000C942A000C942A0098
:100040000C942A000C942A000C942A000C942A0088
:060050000C942A00189533
:1000600000245FE55DBF54E05EBF50E854BF54BF5D
:100070000EC0F0E0EAE908950FEF0ABB08950BBB4C
:100080000895159108951591089505910895F1DF4A
:10009000F3DFF7DFFADFF3DFFACF3F065B4F666D82
:0400A0007D077F67F2
:00000001FF
