:020000020000FC
:100000000C9430000C942A000C942A000C942A00C2
:100010000C942A000C942A000C942A000C942A00B8
:100020000C942A000C942A000C942A000C942A00A8
:100030000C942A000C942A000C942A000C942A0098
:100040000C942A000C942A000C942A000C942A0088
:060050000C942A00189533
:1000600000245FE55DBF54E05EBF50E854BF54BF5D
:1000700026C0B0E0AAEE0895D0E0C0E60895F0E012
:10008000E6ED0895059109935394EA17FB07D1F71C
:100090005A94089508811981011710F01883098373
:1000A00021960895F7DF63946514E1F75A94089553
:1000B00066247724E1DFF6DF7514D1F70895D9DFE0
:1000C000DEDFDADF5524DEDFD7DF66247724EADFE0
:1000D000EFDFF4DFF4CF050C06070901070A04057A
:0A00E00006070901060709010302E3
:00000001FF
