:020000020000FC
:100000000C9430000C942A000C942A000C942A00C2
:100010000C942A000C942A000C942A000C942A00B8
:100020000C942A000C942A000C942A000C942A00A8
:100030000C942A000C942A000C942A000C942A0098
:100040000C942A000C942A000C942A000C942A0088
:060050000C942A00189533
:1000600000245FE55DBF54E05EBF50E854BF54BF5D
:1000700010C0D0E0C0E60895D0E0C4E6089509922B
:100080000992099209920895099303950031E1F7C5
:0C0090000895EFDFF4DF0027F7DFFBCF5F
:00000001FF
